:020000040800F2
:1000000000A000200517000849170008491700083C
:1000100049170008491700084917000800000000A8
:100020000000000000000000000000004917000868
:10003000491700080000000049170008350A0008A9
:100040004917000849170008491700084917000810
:100050004917000849170008491700084917000800
:1000600049170008491700084917000849170008F0
:1000700049170008491700084917000849170008E0
:1000800049170008491700084917000849170008D0
:1000900049170008491700084917000841130008CC
:1000A00049170008491700084917000849170008B0
:1000B000491700084917000849170008450C0008AF
:1000C0004917000849170008491700084917000890
:1000D00049170008210500084D03000849170008CA
:1000E0004917000849170008491700084917000870
:1000F0004917000849170008491700084917000860
:100100000000000000000000000000004917000887
:10011000491700084917000849170008491700083F
:10012000491700084917000849170008491700082F
:1001300049170008491700080000000000000000EF
:100140004917000849170008491700080000000077
:10015000000000000000000000000000000000009F
:1001600000000000000000004917000849170008BF
:100170004917000800000000000000000000000017
:100180000000000049170008044B11B15A691043E0
:1001900002E05A6922EA00005861704700100240EC
:1001A000044B11B19A69104302E09A6922EA0000F7
:1001B0009861704700100240012302E00A22534375
:1001C00001380028FAD1184670470000244B5A69BC
:1001D00042F4602213B55A61DA6942F40032DA61FE
:1001E0004FF4A06001F054FA262301248DF8043066
:1001F00001A8263B8DF805308DF806308DF80740B4
:1002000001F050FA22461748174901F061FC2246D6
:10021000164C1448164901F05BFC236843F4207324
:100220002360A36843F47073A36020460321072270
:1002300000F040FA07222046042100F03BFA094B67
:100240004FF49C729A811A6842F001021A601A688F
:1002500042F008021A601A6842F004021A601CBDDB
:100260000010024000440040050105000004004861
:1002700007010700014B188880B270472401002055
:1002800038B50E4C0E4AA3889BB2D55C0133A380CF
:10029000A3889BB2402B01D10023A38000220948F0
:1002A000094901F015FC238806480749013B012252
:1002B000238001F00DFC284638BD00BF240100203A
:1002C00018030020004400400501050070B5164DDC
:1002D000164904460022164801F0FAFBEB889BB24F
:1002E00023B91348802101F00CFCB0B92B89114AC5
:1002F0009BB2D45401332B812B899BB2A42B02D106
:10030000094B00221A81EB88094808490133012270
:10031000EB80BDE8704001F0DBBB05482146BDE83D
:10032000704001F0CDBB00BF240100200701070091
:10033000004400407402002010B5044601E0FFF7BD
:10034000C5FF14F8010B0028F9D110BD10B52E48D7
:100350002E4901F0DCFB012828D12B48C46914F098
:100360000F0421D101F0B0FB294B2A495A8992B2DE
:10037000C0B2885401325A815A8992B2402A08BFC9
:100380005C811988224A013119801B889BB2402B5D
:1003900003D100231380012393703B2806D11E480C
:1003A000052101F01DF901E001F08EFB16481B4903
:1003B00001F0ADFB012802D1134801F085FB124882
:1003C000174901F0A4FB01281CD1114CE28892B21C
:1003D00092B1E388134A0C48013BE380A3899BB2A6
:1003E000D15C0133A38101F06BFBA3899BB2A42BE9
:1003F00008D10023A38110BD03480949BDE810407E
:1004000001F066BB10BD00BF0044004005010500BF
:100410002401002018030020050D0008000303003C
:1004200007010700740200201C4B5A6942F40022A5
:1004300013B55A619A6942F480429A614FF4A06000
:1004400001F026F9252301248DF8043001A8253B6D
:100450008DF805308DF806308DF8074001F022F94F
:100460000F481049224601F033FB0F48036843F45C
:1004700000730360836843F44073836007220421A0
:1004800000F018F9064B40F219129A811A682243BB
:100490001A601A6842F008021A601CBD001002407F
:1004A00000380140070107000008004870B5064603
:1004B000174DEB899BB2402B2C46F9D015481649B5
:1004C000002201F005FBEB899BB223B91148802182
:1004D00001F017FBB0B9238A104A9BB2D6540133FE
:1004E0002382238A9BB2402B02D1094B00221A821D
:1004F000E3890848084901330122E381BDE87040DF
:1005000001F0E6BA03483146BDE8704001F0D8BAC0
:1005100024010020003801400701070030020020BC
:1005200010B51248124901F0F2FA01281CD1114C01
:10053000E28992B292B1E3890F4A0C48013BE38110
:10054000638A9BB2D15C0133638201F0B9FA638A9A
:100550009BB2402B08D10023638210BD034804499D
:10056000BDE8104001F0B4BA10BD00BF0038014032
:1005700007010700240100203002002070B5051E8D
:1005800003DA2D20FFF792FF6D42012401E00A23D8
:100590005C4395FBF4F00928F9DC3030C0B2FFF77A
:1005A00085FF0A2394FBF3F40EE00A2606FB04F30E
:1005B00095FBF3F003FB105090FBF4F03030C0B229
:1005C000FFF774FF94FBF6F4002CEEDC70BD70B501
:1005D000051E03DA2D20FFF779FE6D42012401E0AC
:1005E0000A235C4395FBF4F00928F9DC3030C0B2F3
:1005F000FFF76CFE0A2394FBF3F40EE00A2606FBD9
:1006000004F395FBF3F003FB105090FBF4F0303053
:10061000C0B2FFF75BFE94FBF6F4002CEEDC70BD7D
:1006200070B50446A1B1481EFFF7C6FD05460DE0B2
:10063000B4FBF5F30A26B3FBF6F006FB103303F127
:100640003000C0B2FFF732FFB5FBF6F5002DEFD159
:1006500070BD10B52DED028B08EE100AB5EEC08A04
:10066000F1EE10FA0C4604D52D20FFF71FFFB1EE76
:10067000488ABDEEC87A17EE100AFFF77FFFB4B1C3
:100680002E20FFF713FF2046FFF796FD07EE100A16
:10069000F8EE477A214668EE277AFCEEE77A17EE05
:1006A000900ABDEC028BBDE81040FFF7B9BFBDEC6E
:1006B000028B10BD01F00703C908083130B59B005B
:1006C00050F821500F249C4025EA040440F82140B2
:1006D00050F8214012FA03F343EA040440F82140A1
:1006E00030BD000038B5C04CC04D2DED0A8B94EDE7
:1006F000005ADDED0E5AD4ED017A06EE903A67EE1F
:10070000A57A55EE667A94ED027A9DED0F6A47EE72
:10071000467AB6EE007AD5ED004A27EE87AAD4EDE8
:10072000017A67EE867A44EEA67A94ED025A45EE97
:10073000657AD5ED004A67EE87AAD4ED007A67EEB8
:10074000867A54EEA57A94ED025A45EE267AD5EDD6
:10075000004A27EE87BAD4ED007A67EEA57A44EE18
:10076000867A94ED015A08EE100A45EE667AB5EEE7
:10077000408AF1EE10FA08EE901A09EE102A67EEA0
:1007800087BAB7EE00CA0AD1F5EE408AF1EE10FA48
:1007900005D1B5EE409AF1EE10FA00F0C88068EE8F
:1007A000A87A48EE087A49EE097AB1EEE77AB4EE13
:1007B000477AF1EE10FA05D017EE900A01F01CFA14
:1007C00007EE100ACCEE077AD5ED000AD4ED003A18
:1007D00094ED014A94ED022AD5ED006A28EEA77A3D
:1007E00028EE276A29EE273AF1EE007A26EEA71ABC
:1007F000D4ED006A66EEA74AD4ED016AD4ED005A42
:1008000026EEA75AF2EE006A25EEA60AD4ED015AAA
:1008100095ED009A65EEA62AD5ED008AD4ED005A32
:10082000D4ED006AD4ED011A65EEA65AD4ED016A42
:1008300034EE044A94ED028A61EEA66AD4ED021AFF
:1008400068EE211A24EE068A01EE268A32EE022A8A
:1008500001EE258A29EE281A22EE069A14EEA19AB4
:10086000D4ED008A21EE271A70EEA00A01EE289A34
:1008700000EEC79A60EE869A39EE649A00EE259AE9
:1008800000EE269A04EE839AD4ED014A41EE249AB2
:1008900045EE219A42EE479A73EEA33A79EEC59A55
:1008A00042EEA59AD4ED024A65EEA75A42EEA69A08
:1008B00063EE868A03EEC78A55EEA48A45EE039A54
:1008C00066EEA77A94ED025A47EE858A69EE097AB8
:1008D00048EE087A44EE478A49EEA97A48EEA87AAB
:1008E000B1EEE77AB4EE477AF1EE10FA05D017EEE2
:1008F000900A01F081F907EE100ACCEE077AD5EDE7
:10090000016A28EE277A06EEC7AAD5ED016A29EE1C
:10091000277A46EEC7AA29EEA77AD5ED016A68EED6
:10092000A77A06EEC7BA95ED017A47EE67BA95ED5C
:10093000007AD5ED027A0AEE277A85ED007A94EDF9
:10094000007A0AEEA77A84ED007A94ED017A0BEE34
:10095000277A84ED017A94ED027A0BEEA77A84ED82
:10096000027AD5ED004A95ED005A94ED004AD4ED97
:10097000007A64EE277A44EE857AD4ED015A94ED3C
:10098000016A45EE867AD4ED026A94ED027A46EE6B
:10099000877AB1EEE77AB4EE477AF1EE10FA05D035
:1009A00017EE900A01F028F907EE100ACCEE077A4C
:1009B00095ED007A27EE277A85ED007A94ED007A9E
:1009C00027EE277A84ED007A94ED017A27EE277AD4
:1009D00084ED017A94ED027A67EE277AC4ED027A0B
:1009E000BDEC0A8B38BD00BF38010020000000209C
:1009F0000C4B1B68002B10B50FDA0B48FFF79CFC63
:100A00000D20FFF763FC0A20FFF760FC07484FF456
:100A10007A71BDE8104000F0E3BD0548BDE8104024
:100A200000F0C8BD240000209C360008F109000831
:100A30008117000800F010BE08B500F0A3FD00F01B
:100A400095FD00F017F800F095FA00F0A5FAFFF711
:100A5000EBFCFFF7BBFB054800F0ACFD044800F0E1
:100A6000A9FD00F079FC00F0DBFDFCE7CD0E0008ED
:100A7000F10900082A4B5A6942F4802213B55A61E1
:100A8000DA69284C42F40012DA611A6B42F0100263
:100A90001A63254B1A6842F498121A60236843F4CB
:100AA00020432360A3889BB243F0C003A380A368C4
:100AB00043F47043A360204606210422FFF7FAFDA9
:100AC000042220460721FFF7F5FD184B1A6822F093
:100AD00001021A60154B1A6812F0010FFAD1196958
:100AE000134A41EA02021A611A6842F001021A60CE
:100AF0000E4B1B6813F0010FFAD04FF4A06000F00A
:100B0000C7FD1F238DF804301F3B8DF805308DF88D
:100B1000063001A801338DF8073000F0C3FD1CBD7D
:100B20000010024000040048000001400054004052
:100B3000240C8030124B18B1586840F4806002E0F9
:100B4000586820F4806058600D4B586820F47F008E
:100B50005860586840EA02425A605A6822F47E722D
:100B600022F007025A605A68114359605A6842F4E9
:100B700000525A60024B9B6913F4004FFAD0704741
:100B8000005400400D4B5A6842F480425A600B4BAF
:100B90009A6912F4004FFAD1DA6942F03002DA6150
:100BA0009A6912F4407F07D0DA6942F40072DA6180
:100BB000DA6942F48072DA61704700BF0054004085
:100BC00070B504460E461546002021460122FFF767
:100BD000B1FF04E09A6912F0020F18BF9E62184B31
:100BE0009A6912F0400F07D19A6912F0100F03D1E1
:100BF0009A6912F4004FEDD1114B1A6842F0440289
:100C00001A605A6842F480625A605A6822F47F027D
:100C10005A605A6842EA05455D605A6822F47E725D
:100C200022F007025A605A6814435C605A6842F422
:100C300000525A60024B9B6913F4004FFAD070BD0A
:100C40000054004010498B6913F0040F10B506D012
:100C50000E4B486A1A780E49885401321A700A4BB2
:100C60009A6912F0400F0DD0084A002111701A68DD
:100C700022F044021A60FFF785FF0648BDE81040E5
:100C800000F098BC10BD00BF00540040540100208B
:100C90005803002089110008034670B500200C4657
:100CA000154619460222FFF745FF154B9A6912F0C7
:100CB000020F07D19A6912F0100F03D19B6913F448
:100CC000004FF2D10E4B9A6912F0020F06D09C62CF
:100CD00004E09A6912F0020F18BF9D62084B9A69EE
:100CE00012F0400F07D19A6912F0100F03D19A69E0
:100CF00012F4004FEDD1BDE87040FFF743BF00BFD5
:100D000000540040F0B5002493B0264616E0FFF7EB
:100D1000B7FA12A90B1903F8200CA0F13003DBB2CB
:100D2000092B09D92D2807D001EB86030AA90A1936
:100D3000013643F8442CF6B20134E4B2FFF79AFAD4
:100D400005460028E3D10AA802F09CFA164C6F462B
:100D5000206005E057F8040F02F094FA44F82500EB
:100D60000135EBB2B342F5D31048FFF7E5FA20683E
:100D7000FFF72DFC0E48FFF7DFFA6068FFF727FC4E
:100D80000C48FFF7D9FAA068FFF721FC0A48FFF7E3
:100D9000D3FA0D20FFF79AFA0A20FFF797FA0748CF
:100DA00000F008FC13B0F0BD68030020A236000874
:100DB000AC360008B7360008C5360008F118000840
:100DC0008379026870B5002B69D022F01F0101F110
:100DD000804101F5823101230C6802F01F0213FAF1
:100DE00002F224EA02020A600468354A24F01F0174
:100DF00004F01F048D5813FA04F425EA04048C50FF
:100E00000279046802F1804224F01F0102F5823267
:100E100004F01F04555813FA04F445EA040454502E
:100E20000168284D21F01F0201F01F01545913FAE7
:100E300001F124EA010151510168234C21F01F0204
:100E400001F01F01165913FA01F126EA01011151AF
:100E500042790168102A14D121F01F0201F01F010C
:100E6000565913FA01F146EA01015151016821F086
:100E70001F0201F01F0110598B4040EA0303135178
:100E800070BD02F1804221F01F0002F5823201F0B4
:100E90001F0114588B4044EA0303135070BD0379BB
:100EA00003F1804322F01F0103F5823302F01F0299
:100EB0005858012414FA02F220EA02025A5070BD76
:100EC00004040140080401400C04014008B532212B
:100ED000254800F085FB254A1368591C1160072B33
:100EE00040D8DFE803F0040B121920272E36204BE0
:100EF0004FF000429A614FF4807228E01C4B4FF093
:100F000080729A614FF4007221E0194B4FF0007229
:100F10009A614FF480621AE0154B4FF080629A613B
:100F20004FF4006213E0124B4FF000629A614FF4ED
:100F300080520CE00E4B4FF080529A614FF40052F9
:100F400005E00B4B4FF000529A614FF480429A61DA
:100F500008BD074B4FF0804199614FF40041996102
:100F60000023136008BD00BFCD0E0008580100200B
:100F700000100048064B5A6942F400125A61054AB3
:100F8000136843F0AA4343F4AA031360704700BFF9
:100F900000100240001000481B4BDA6942F00102C9
:100FA00010B5DA615A694FF0904442F400325A6148
:100FB000236843F00A032360A36843F00F03A36090
:100FC000204600210122FFF775FB01210A46204639
:100FD000FFF770FB4FF0804315221A854FF6FF7222
:100FE000DA621A6A42F011021A6246F260029A61EB
:100FF0001A8822F060021204120C1A801A8892B227
:1010000042F001021A8010BD00100240B0F5E16FFD
:1010100028BF4FF4E16000EB400000F5D6604FF0D0
:10102000804302305863704740F2A463984205D869
:10103000B0F52F7F38BF4FF42F7000E0184600EB5B
:10104000400000F5D6604FF080430230986370474F
:10105000F8B5454E454C464F464DD6ED006A94EDE9
:10106000007A97ED006AD5ED007A66EE277A56EEA3
:10107000877A2DED028B77EEA77A9FED3F8A17EEE8
:10108000900A00F063FD07EE100A3C4B67EE487AC9
:10109000C3ED007AD6ED002A95ED003A97ED002ACF
:1010A00094ED007A97ED004AD7ED004AD6ED003A6C
:1010B000D6ED007A63EEA77A44EE247A95ED005AD5
:1010C000D5ED005A22EE077A45EE657A94ED006A76
:1010D00002EE837AD4ED006A46EE667A37EE077A3E
:1010E00017EE901A17EE100A00F084FD07EE100AB2
:1010F000234B67EE087AC3ED007AD7ED002A96ED10
:10110000003A95ED002A94ED007A97ED004AD7ED6C
:10111000004AD6ED003AD6ED007A63EEA77A54EE97
:10112000247A95ED005AD5ED005A22EE077A45EE65
:10113000657A94ED006A02EE837AD4ED006A46EE99
:10114000267A37EE077A17EE901A17EE100A00F09B
:1011500051FD07EE100A0B4B67EE087AC3ED007ADB
:10116000BDEC028BF8BD00BF38010020400100201B
:10117000000000203C010020E02E6542BC0300205E
:10118000B8030020C003002073B55C4B5C484022CC
:101190009A615C4B19785A781C791D7A9E7A42EADA
:1011A000012212B2997806EE902ADA78DFED567AAB
:1011B000B8EEE67A42EA012212B227EE277A06EE6C
:1011C000902A5A79514980ED007A42EA0422B8EE19
:1011D000E67A12B227EE277A06EE902A81ED007A9F
:1011E0005C7A4B4AB8EEE67A44EA052467EE277A41
:1011F00024B2C2ED007A07EE904ADC7A454DB8EE93
:10120000E77A44EA0624DFED447A24B21E7B5B7B56
:1012100027EE277A06EE904A85ED007A43EA062308
:10122000B8EEE67A1BB227EE277A3C4C06EE903AEF
:1012300084ED007AB8EEE67A394B67EE277A9FEDB7
:10124000397AC3ED007A006809681268D5ED007A32
:10125000D4ED005A93ED006A67EE876A65EE875A0F
:10126000DFED317A26EE077AC5EEA75A2F4C87EECE
:10127000277ACDED005A8DED017A86EEA77A17EE2A
:10128000103AFFF72FFAFFF7E3FE294B9FED297A7B
:10129000D3ED007A284B94ED006ADFED286A67EE03
:1012A000877AD3ED005A46EE267A94ED016A25EE50
:1012B000877A06EE267AA368042BC4ED007A84EDC3
:1012C000017A02D80133A36013E0002317EE900ADD
:1012D000A3600321FFF7BDF92020FFF7E7F860685E
:1012E0000321FFF7B6F92020FFF7E0F80A20FFF707
:1012F000DDF8024B4FF480029A617CBD001000487B
:10130000A803002058030020000080389803002024
:10131000A00300209C03002000007A3CA4030020CE
:10132000D0030020DB0F4940000034435C01002063
:10133000BC030020CDCC4C3FC0030020CCCC4C3EA5
:10134000044B5A6942F040025A61D0203B210E22E0
:10135000FFF736BC0004014030B54FF4002085B0E3
:101360000121FEF711FF01200146FEF719FF354B61
:101370001A6822F440521A60334B5A6942F4001240
:101380005A61324B1A6842F480521A6006210220D8
:1013900000F0DCF90623002400930125023368469F
:1013A0008DF805308DF804408DF80650FFF708FDE4
:1013B000172303A88DF80C308DF80D408DF80E40E2
:1013C0008DF80F5000F06EF9D0206B218022FFF7CE
:1013D00063FC029402E0029B01330293029A4CF2F6
:1013E0004F339A42F7D9D0206B210122FFF754FCEA
:1013F000002301E0029B01330293029A4CF24F3327
:101400009A42F7D9D02019210122FFF745FCD020BC
:101410001A210122FFF740FCD0201B210822FFF7F0
:101420003BFCD0201C210022FFF736FCD0203721C6
:101430003022FFF731FCD02038210122FFF72CFCAD
:1014400005B030BD00080048001002400010004800
:1014500082B0002301930093244B1A6842F4803237
:101460001A60224B1A6802F400320092019A01328B
:101470000192009A1AB9019AB2F5A06FF1D11B68D6
:1014800013F4003318BF01230093009B012B2AD1D2
:10149000174B12221A60154B5A685A605A685A60E4
:1014A0005A6842F480625A605A6822F47C125A6088
:1014B0005A6842F4E8125A601A6842F080721A6060
:1014C0000A4B1A6812F0007FFAD05A6822F0030221
:1014D0005A605A6842F002025A60044B5B6803F09B
:1014E0000C03082BF9D102B0704700BF0010024076
:1014F0000020024010B5184CD4F8883043F4700333
:10150000C4F88830154B1A6842F001021A60596815
:10151000134A01EA02025A601A6822F0847222F425
:1015200080321A601A6822F480221A605A6822F403
:10153000FE025A60DA6A22F00F02DA62196B094A77
:1015400001EA02021A6300229A60FFF781FF4FF05E
:101550000063A36010BD00BF00ED00E0001002407A
:101560000CC07FF8CCFC00FF70470000034B044A1E
:101570005A6007221A6062B6704700BF10E000E0B0
:101580003F19010010B50023084A094941F82320FA
:1015900001330D2B1046F7D10D3B01EBC302013394
:1015A0000024102B50639463F7D110BD6915000817
:1015B0006801002010B572B6002302E001330D2B44
:1015C00007D0054A054952F823408C42F6D142F82B
:1015D000230062B610BD00BF680100206915000835
:1015E00070B572B600230C4C04EBC302556B8542F8
:1015F0000AD00133102BF6D1103B04EBC302074D88
:10160000566BAE4203D15063916362B670BD013335
:10161000102BF2D170BD00BF6801002069150008D1
:1016200038B572B60A4A0B4913688B4201D162B6CB
:1016300038BD002000E02046441C0C2C52F82450F9
:1016400042F82050F7D1024A116362B6984738BD7C
:10165000680100206915000870B500250A4C0B4E82
:1016600004EBC504636BB34209D0A36B1BB1A36B3E
:10167000013BA36303E0606BFFF79CFF66630135EA
:10168000102DEBD170BD00BF680100206915000866
:1016900040F0BE60024B40F42020D860704700BF8D
:1016A00000ED00E0C37810B5E3B1144B4178DB687E
:1016B0008478DB4303F4E0631B0AC3F10402914026
:1016C0000F22DA4022400A430D4B0178CB18120159
:1016D00083F8002303780122590903F01F0312FA4B
:1016E00003F307E003780122590903F01F0312FAFC
:1016F00003F32031024A42F8213010BD00ED00E032
:1017000000E100E0002103E00A4B5B584350043144
:1017100009480A4B42189A42F6D3094A02E00023CC
:1017200042F8043B074B9A42F9D3FFF7E3FEFFF779
:1017300083F97047B8380008000000202401002019
:1017400024010020D4030020FEE7000001F0030282
:1017500089080A4B023130B5920053F821500F240A
:10176000944025EA040443F8214053F8214010FA3C
:1017700002F242EA040443F8214030BD0000014077
:10178000544B554870B59C68544D1423322124B2F3
:1017900094FBF3F4FFF724FF2A886B8812B21BB284
:1017A0009A42A4B23AD06988AA8823B209B203FA4D
:1017B00082F2914217DA6988AA8812B209B2D21A63
:1017C000914210DD6B8846482B806B88AB80FEF71A
:1017D000B3FD4448FEF7B0FDAB6843F00103AB60D6
:1017E0000023AB811AE0A9683C4A21F00101A960FD
:1017F0006888298800B203FA81F1884203DD918864
:1018000014FA81F1918069882888344A00B209B2BB
:10181000C31A994202DA93881B1B9380EA892B8AA8
:101820002E4E12B21BB29A423AD0318A728A23B239
:1018300009B203FA82F2914217DA318A728A12B23D
:1018400009B2D21A914210DD338A2748F381338AD4
:101850007382FEF771FD2348FEF76EFDB36843F017
:101860000203B3600023B3811AE0A9681B4A21F088
:101870000201A960288AE98900B203FA81F188424D
:1018800003DD518A14FA81F15182298AE889134AC9
:1018900000B209B2C31A994202DA538A1C1B54825D
:1018A000AB6813F0010F09D00C4B9B6813F0020FCB
:1018B00004D00E48BDE87040FFF77CBEA88800B297
:1018C0004000FFF7A3FB688A00B2BDE87040FFF755
:1018D000ABBB00BF68030020811700081C0200207A
:1018E000CE360008DD360008E0360008211A000870
:1018F0003C4B70B53C4C1A685B68216892B221F091
:101900000041216011B25A299BB205DD226842F0E4
:10191000010222605A220BE02068002920F0010019
:10192000206005DA226842F002022260002203E011
:10193000216821F00201216018B2AA2805DD236880
:1019400043F004032360AA230CE02568264925F010
:1019500004054528256005DC0B6843F008030B608F
:10196000462303E0216821F008012160216899B92C
:101970001E490A20424343434A801D480B82FEF71A
:10198000DBFC1C48FEF7D8FC1A48FEF7D5FC1A48C9
:10199000BDE87040FFF70EBE1848FEF7CDFC124BB5
:1019A0001B6813F0010F02D01548FEF7C5FC236831
:1019B00013F0020F02D01348FEF7BEFC236813F0A9
:1019C000040F02D01048FEF7B7FC236813F0080F8D
:1019D00002D00E48FEF7B0FC0648BDE87040FEF7A6
:1019E000ABBC00BF68030020240000201C020020C4
:1019F000EF360008DD36000881170008FF360008C2
:101A00000D370008253700083C3700085437000818
:101A1000431A002BCCBF1846C0EB010000B2704740
:101A200070B5224C2248A688638AB6B206F57A764B
:101A3000F61A204B93ED007AF2EE047A67EE277ADD
:101A400036B2FDEEE77A17EE905AFEF775FC0A20E3
:101A500096FBF0F0FEF7BBFD2DB21748FEF76CFCCD
:101A60002846FEF7B4FD1548FEF766FC30462946C9
:101A7000FFF7CEFF1E2817DDAE4202DDA089023837
:101A800001E0A0890230638AA0811BB203FA80F0D2
:101A9000FFF7CAFAA088B4F90C3000B24000C01AAF
:101AA000BDE87040FFF7B2BA70BD00BF1C02002055
:101AB0006B370008BC03002073370008DD360008D0
:101AC000C905C90D01857047808CC005C00D7047E0
:101AD0008BB210B51B0A012401F0FF0114FA01F1C9
:101AE000022B01D1043002E0032B08BF08301AB1E9
:101AF000036843EA010102E0036823EA010101608F
:101B000010BDC36919420CBF0020012070478AB282
:101B100010B5120A012401F0FF0314FA03F3A242E4
:101B200001D1026803E0022A0CBF426882681340B8
:101B3000C26943B1090C012313FA01F111420CBF30
:101B40000020012010BD184610BD000070B58AB0FD
:101B5000064600F0A3F840F22804C2F2000494F90B
:101B60000030B3F1FF3F054603D0304600F05EFC85
:101B700010B928460AB070BD304600F053FC4FF053
:101B80007E5101F075FB0028F3D043F27C733046A0
:101B9000C0F600030193012300930023089300F093
:101BA000E7FD024643F28470C0F600000B46CDE923
:101BB0000423CDE9022300F00DFB94F90030022B41
:101BC000CDE906010BD0684600F002FB38B1089B56
:101BD00053B9DDE9060101F031F80546C9E701F026
:101BE00059FB21230360F2E701F054FB089B0360DB
:101BF000EFE700BF00F0DEB970B58AB0064600F02E
:101C00008FFA40F22804C2F2000494F90030B3F1D4
:101C1000FF3F054630D0304600F008FC00282BD0AE
:101C20003046002101F006FB30B343F288733046A2
:101C3000C0F600030193012300930023089300F0F2
:101C400097FD2478CDE90401CDE90201BCB1002063
:101C5000002102460B4600F009FF022CCDE90601E7
:101C600011D101F017FB21230360089B8BB9DDE93B
:101C7000060100F0E3FF054628460AB070BD0022C9
:101C80000023CDE90623684600F0A2FA0028ECD133
:101C9000E7E701F0FFFA089B0360E8E72DE9F0476A
:101CA00020F00045B5F17E5F0446064600F0FD8059
:101CB00000F3D580B5F17C5F10DAB5F1485F80F2B2
:101CC0000A814FF2CA21C7F2491101F00DF84FF015
:101CD0007E5101F0CDFA002840F0C880204600F087
:101CE000A1FB01464FF07E5000F0FCFF4FF07C510D
:101CF00001F002F94EF60871C3F61101044601F035
:101D0000FBF847F60471C3F64F2100F0EDFF2146C2
:101D100001F0F2F841F24611C3F6245100F0E2FF5F
:101D2000214601F0E9F840F6A821C3F64E6100F023
:101D3000DBFF214601F0E0F84BF29001C3F6A6610B
:101D400000F0D0FF214601F0D7F84AF6AB21C3F6E8
:101D50002A6100F0C9FF214601F0CEF84CF22E6155
:101D6000C3F69D518146204601F0C6F843F2613129
:101D7000C3F6307100F0B6FF214601F0BDF845F220
:101D80002D71C4F2010100F0AFFF214601F0B4F85B
:101D90004DF23911C4F2190100F0A4FF214601F0FF
:101DA000ABF84FF07E5100F09FFF8046204600F0D8
:101DB000B7F949F69913C3F679739D42074658DC83
:101DC000014620F47E6500F08FFF414625F01F0597
:101DD0008246484601F044F90146504601F08CF82D
:101DE00029468046284601F087F80146204600F043
:101DF00079FF29460446384600F076FF0146204622
:101E000001F02EF9014600F06FFF01464BF62E500F
:101E1000CBF23B3000F066FF0146404600F062FF27
:101E200029460446284600F05FFF014640F6DB7075
:101E3000C3F6497000F056FF0146204600F052FFFD
:101E4000014640F6DB70C3F6497000F04BFF002EF0
:101E5000D4BF00F1004404462046BDE8F0870146A7
:101E600000F040FF014601F0FBF804462046BDE8C3
:101E7000F0874146484601F0F3F80146384601F044
:101E80003BF8394600F030FF014600F02DFF4BF6DD
:101E90002E51C3F23B3100F027FF014640F6DB70C4
:101EA000C3F6C97000F01EFFD1E740F6DB71C3F640
:101EB000C97101F021F84BF62E51CBF23B310546AA
:101EC000204601F019F80146284600F00DFF0446AF
:101ED0002046BDE8F087014601F00EF84EF6087185
:101EE000C3F61101054601F007F847F60471C3F681
:101EF0004F2100F0F9FE294600F0FEFF41F24611A5
:101F0000C3F6245100F0EEFE294600F0F5FF40F63E
:101F1000A821C3F64E6100F0E7FE294600F0ECFF71
:101F20004BF29001C3F6A66100F0DCFE294600F0FA
:101F3000E3FF4AF6AB21C3F62A6100F0D5FE29463D
:101F400000F0DAFF4CF22E61C3F69D51064628469A
:101F500000F0D2FF43F26131C3F6307100F0C2FEEF
:101F6000294600F0C9FF45F22D71C4F2010100F0CD
:101F7000BBFE294600F0C0FF4DF23911C4F2190131
:101F800000F0B0FE294600F0B7FF4FF07E5100F0A0
:101F9000ABFE0146304601F063F80146204600F0F2
:101FA000ABFF0146204600F09FFE04462046BDE8F8
:101FB000F08700BF2DE9F04120F00044B4F1FF4F5D
:101FC00021F00046D4BF00270127B6F1FF4FC8BF5C
:101FD00047F001070346002F49D1B1F17E5F51D090
:101FE0008F1707F0020747EAD07754B9022F44D081
:101FF000032F03D140F6DB73CCF249031846BDE84A
:10200000F08136B3B6F1FF4F59D0B4F1FF4F20D075
:10201000A41BE4153C2CC4BF40F6DB70C3F6C970AA
:1020200034DD012F08BF00F10043E7D0022F37D085
:102030000346002FE2D04BF62E51C3F2BB3100F025
:1020400053FE40F6DB71C4F2490100F04BFE03463B
:10205000D4E70028BCBF40F6DB73CBF6C973CDDBF9
:1020600040F6DB73C3F6C9731846BDE8F08100F093
:102070003BFE03461846BDE8F08140F6DB73C4F230
:102080004903BBE7BDE8F04100F0AAB814F13C0FEA
:10209000ACBF0024012414EAD1741ED00020C0E794
:1020A0004BF62E51C3F2BB3100F01EFE014640F646
:1020B000DB70C4F2490000F015FE03469EE7B4F160
:1020C000FF4F11D0022FD8D0032F93D0012F08BF7C
:1020D0004FF0004392D0002390E700F0C1FF00F0E2
:1020E000A1F900F07DF89CE7022F04BF4CF6E43321
:1020F000C4F2160382D0032F04BF4CF6E433CCF2B3
:1021000016033FF47BAF012F1CBF40F6DB73C3F611
:1021100049737FF473AF40F6DB73CBF649736DE719
:1021200020F000420346B2F1FF4F70B504463AD2A8
:10213000002A36D0002840DBC115B2F5000F09D2C5
:1021400010F4000241D15B00013213F4000FFAD009
:102150000131891A23F07F43A1F17F0223F40003A8
:1021600012F0010F43F4000318BF5B000026541067
:1021700019215B0035464FF08072A8189842DEBFE7
:10218000C0EB03038518B61852085B000139F4D17F
:1021900013B106F001039E19E40504F17C5404EB2D
:1021A0006604204670BD014600F0A6FE01462046AA
:1021B00000F09AFD0446204670BD014600F092FDF5
:1021C000014600F04DFF0446EBE70022C0E700BFE8
:1021D0000020704700210020C7F6F871704700BF4B
:1021E0002DE9F04120F00045B5F1A14F0446064627
:1021F0000EDBB5F1FF4F00F3A5800028C4BF40F609
:10220000DB74C3F6C97440F3DA802046BDE8F08180
:102210004FF6FF73C3F6DF639D4200F3A880B5F16C
:10222000445FC0F296804FF0FF372146204600F011
:1022300063FE0146804600F05FFE46F6D711C3F606
:102240008541054600F058FE4DF65921C3F64B5125
:1022500000F04AFD294600F04FFE46F63531C3F640
:10226000885100F041FD294600F046FE42F66E61BD
:10227000C3F6BA5100F038FD294600F03DFE44F6A1
:102280002511C3F6126100F02FFD294600F034FE3F
:102290004AF6AB21C3F6AA6100F026FD414600F0E4
:1022A0002BFE4AF22121CBF615518046284600F03C
:1022B00023FE4FF26B11C3F66E5100F013FD294659
:1022C00000F01AFE48F29571C3F69D5100F00AFD28
:1022D000294600F011FE48F63861C3F6E35100F0DC
:1022E00001FD294600F008FE4CF6CD41C3F64C61D5
:1022F00000F0F8FC294600F0FFFDB7F1FF3F014672
:1023000051D043F29075404600F0EEFCC0F6000557
:10231000214600F0F1FD05EB8703196900F0E2FCAE
:10232000214600F0DFFC014655F8270000F0DAFCFA
:10233000002EB8BF00F10044FFF667AF0446204608
:10234000BDE8F081014600F0CFFC04462046BDE820
:10235000F0814FF2CA21C7F2491100F0C5FC4FF0DD
:102360007E5100F085FF00283FF45DAF4DE700F09F
:1023700059F84FF6FF73C3F697739D42044623DC6A
:102380004FF6FF73C3F62F739D4241DC01460027D1
:1023900000F0AAFC4FF07E5100F0A4FC4FF0804109
:1023A0000546204623E0404600F09EFC214600F012
:1023B000A3FD0146204600F095FC044625E740F6C3
:1023C000DB74CBF6C97420E74FF6FF73C4F21B032E
:1023D0009D4214DC4FF07F51022700F083FC4FF048
:1023E0007F510546204600F087FD4FF07E5100F0FA
:1023F0007BFC0146284600F033FE044615E700202A
:102400002146CBF68070032700F02AFE04460CE735
:102410004FF07E51012700F065FC4FF07E510546DC
:102420002046E4E720F00040704700BFD0F10103F0
:1024300038BF0023B0F1004F08BF43F00103002B69
:102440002ED1A0F5000300F1FF42B3F1FE4F2CBFE7
:1024500000230123B2F1FE4F38BF43F00103EBB973
:102460004FF6FE73411EC0F27F0300F10042013AB5
:1024700099428CBF002101219A428CBF0B4641F04A
:1024800001037BB910F5000F14BF00230123B0F145
:10249000FF4F14BF184643F00100704704207047F7
:1024A000022070470320704781F0004102E000BF26
:1024B00083F0004330B54FEA41044FEA430594EA04
:1024C000050F08BF90EA020F1FBF54EA000C55EA3F
:1024D000020C7FEA645C7FEA655C00F0E2804FEA10
:1024E0005454D4EB5555B8BF6D420CDD2C4480EAF2
:1024F000020281EA030382EA000083EA010180EA22
:10250000020281EA0303362D88BF30BD11F0004F6F
:102510004FEA01314FF4801C4CEA113102D04042A5
:1025200061EB410113F0004F4FEA03334CEA1333E0
:1025300002D0524263EB430394EA050F00F0A780F8
:10254000A4F10104D5F1200E0DDB02FA0EFC22FAF3
:1025500005F2801841F1000103FA0EF2801843FAE7
:1025600005F359410EE0A5F120050EF1200E012AD8
:1025700003FA0EFC28BF4CF0020C43FA05F3C01816
:1025800051EBE37101F0004507D54FF0000EDCF18F
:10259000000C7EEB00006EEB0101B1F5801F1BD338
:1025A000B1F5001F0CD349085FEA30004FEA3C0C3C
:1025B00004F101044FEA445212F5800F80F09A8032
:1025C000BCF1004F08BF5FEA500C50F1000041EB36
:1025D000045141EA050130BD5FEA4C0C404141EB3A
:1025E000010111F4801FA4F10104E9D191F0000F61
:1025F00004BF01460020B1FA81F308BF2033A3F1E4
:102600000B03B3F120020CDA0C3208DD02F1140CDA
:10261000C2F10C0201FA0CF021FA02F10CE002F115
:102620001402D8BFC2F1200C01FA02F120FA0CFC0E
:10263000DCBF41EA0C019040E41AA2BF01EB045157
:10264000294330BD6FEA04041F3C1CDA0C340EDC55
:1026500004F11404C4F1200220FA04F001FA02F398
:1026600040EA030021FA04F345EA030130BDC4F156
:102670000C04C4F1200220FA02F001FA04F340EA4B
:102680000300294630BD21FA04F0294630BD94F0FC
:10269000000F83F4801306BF81F480110134013DE3
:1026A0004EE77FEA645C18BF7FEA655C29D094EA54
:1026B000050F08BF90EA020F05D054EA000C04BFD2
:1026C0001946104630BD91EA030F1EBF00210020BD
:1026D00030BD5FEA545C05D14000494128BF41F05C
:1026E000004130BD14F580043CBF01F5801130BDC0
:1026F00001F0004545F0FE4141F470014FF000004B
:1027000030BD7FEA645C1ABF194610467FEA655CFB
:102710001CBF0B46024650EA013406BF52EA03359D
:1027200091EA030F41F4002130BD00BF90F0000F8B
:1027300004BF0021704730B54FF4806404F13204C7
:102740004FF000054FF0000150E700BF90F0000F80
:1027500004BF0021704730B54FF4806404F13204A7
:1027600010F0004548BF40424FF000013EE700BF77
:1027700042004FEAE2014FEA31014FEA02701FBF07
:1027800012F07F4393F07F4F81F06051704792F0D9
:10279000000F14BF93F07F4F704730B54FF4607453
:1027A00001F0004521F0004120E700BF50EA01029E
:1027B00008BF704730B54FF000050AE050EA01024B
:1027C00008BF704730B511F0004502D5404261EBBB
:1027D00041014FF4806404F132045FEA915C3FF4FC
:1027E000DCAE4FF003025FEADC0C18BF03325FEA95
:1027F000DC0C18BF033202EBDC02C2F1200300FA4A
:1028000003FC20FA02F001FA03FE40EA0E0021FA6E
:1028100002F11444C1E600BF70B54FF0FF0C4CF458
:10282000E06C1CEA11541DBF1CEA135594EA0C0F0E
:1028300095EA0C0F00F0DEF82C4481EA030621EA49
:102840004C5123EA4C5350EA013518BF52EA033584
:1028500041F4801143F4801338D0A0FB02CE4FF036
:102860000005E1FB02E506F00042E0FB03E54FF066
:102870000006E1FB03569CF0000F18BF4EF0010E5E
:10288000A4F1FF04B6F5007F64F5407404D25FEA5A
:102890004E0E6D4146EB060642EAC62141EA55510D
:1028A0004FEAC52040EA5E504FEACE2EB4F1FD0C4F
:1028B00088BFBCF5E06F1ED8BEF1004F08BF5FEACD
:1028C000500E50F1000041EB045170BD06F000467F
:1028D00046EA010140EA020081EA0301B4EB5C042C
:1028E000C2BFD4EB0C0541EA045170BD41F4801124
:1028F0004FF0000E013C00F3AB8014F1360FDEBF49
:10290000002001F0004170BDC4F10004203C35DA24
:102910000C341BDC04F11404C4F1200500FA05F3A7
:1029200020FA04F001FA05F240EA020001F0004248
:1029300021F0004110EBD37021FA04F642EB0601BE
:102940005EEA430E08BF20EAD37070BDC4F10C04E8
:10295000C4F1200500FA04F320FA05F001FA04F2AC
:1029600040EA020001F0004110EBD37041F1000198
:102970005EEA430E08BF20EAD37070BDC4F12005A3
:1029800000FA05F24EEA020E20FA04F301FA05F20B
:1029900043EA020321FA04F001F0004121FA04F2B3
:1029A00020EA020000EBD3705EEA430E08BF20EA83
:1029B000D37070BD94F0000F0FD101F000464000BD
:1029C00041EB010111F4801F08BF013CF7D041EA3F
:1029D000060195F0000F18BF704703F00046520043
:1029E00043EB030313F4801F08BF013DF7D043EA14
:1029F0000603704794EA0C0F0CEA135518BF95EACA
:102A00000C0F0CD050EA410618BF52EA4306D1D150
:102A100081EA030101F000414FF0000070BD50EA6F
:102A2000410606BF1046194652EA430619D094EAF9
:102A30000C0F02D150EA013613D195EA0C0F05D1E3
:102A400052EA03361CBF104619460AD181EA030137
:102A500001F0004141F0FE4141F470014FF00000EF
:102A600070BD41F0FE4141F4780170BD70B54FF08A
:102A7000FF0C4CF4E06C1CEA11541DBF1CEA13550A
:102A800094EA0C0F95EA0C0F00F0A7F8A4EB0504EC
:102A900081EA030E52EA03354FEA013100F08880E3
:102AA0004FEA03334FF0805545EA131343EA1263AC
:102AB0004FEA022245EA111545EA10654FEA002661
:102AC0000EF000419D4208BF964244F1FD0404F51A
:102AD000407402D25B084FEA3202B61A65EB030576
:102AE0005B084FEA32024FF480104FF4002CB6EB33
:102AF000020E75EB030E22BFB61A754640EA0C00B3
:102B00005B084FEA3202B6EB020E75EB030E22BFF2
:102B1000B61A754640EA5C005B084FEA3202B6EB33
:102B2000020E75EB030E22BFB61A754640EA9C00F2
:102B30005B084FEA3202B6EB020E75EB030E22BFC2
:102B4000B61A754640EADC0055EA060E18D04FEA80
:102B5000051545EA16754FEA06164FEAC30343EA20
:102B600052734FEAC2025FEA1C1CC0D111F4801FED
:102B70000BD141EA00014FF000004FF0004CB6E7E6
:102B800011F4801F04BF01430020B4F1FD0C88BF85
:102B9000BCF5E06F3FF6AFAEB5EB030C04BFB6EB90
:102BA000020C5FEA500C50F1000041EB045170BD83
:102BB0000EF0004E4EEA113114EB5C04C2BFD4EBB0
:102BC0000C0541EA045170BD41F480114FF0000E34
:102BD000013C90E645EA060E8DE60CEA135594EAB0
:102BE0000C0F08BF95EA0C0F3FF43BAF94EA0C0FB3
:102BF0000AD150EA01347FF434AF95EA0C0F7FF428
:102C000025AF104619462CE795EA0C0F06D152EA7B
:102C100003353FF4FDAE1046194622E750EA41065F
:102C200018BF52EA43067FF4C5AE50EA41047FF470
:102C30000DAF52EA43057FF4EBAE12E74FEA4102D3
:102C4000B2F1E04324BFB3F5001CDCF1FE5C0DD90A
:102C500001F0004C4FEAC0024CEA5070B2F1004F54
:102C600040EB830008BF20F00100704711F0804F57
:102C700021D113F13872BCBF01F00040704741F41C
:102C800080114FEA5252C2F11802C2F1200C10FA20
:102C90000CF320FA02F018BF40F001004FEAC12304
:102CA0004FEAD32303FA0CFC40EA0C0023FA02F3A8
:102CB0004FEA4303CCE77FEA625307D150EA01337E
:102CC0001EBF4FF0FE4040F44000704701F000404E
:102CD00040F0FE4040F40000704700BF80F000402C
:102CE00002E000BF81F0004142001FBF5FEA4103E4
:102CF00092EA030F7FEA226C7FEA236C6AD04FEAE4
:102D00001262D2EB1363C1BFD21841404840414028
:102D1000B8BF5B42192B88BF704710F0004F40F4DA
:102D2000000020F07F4018BF404211F0004F41F4F6
:102D3000000121F07F4118BF494292EA030F3FD0C2
:102D4000A2F1010241FA03FC10EB0C00C3F12003D5
:102D500001FA03F100F0004302D5494260EB400064
:102D6000B0F5000F13D3B0F1807F06D340084FEACF
:102D7000310102F10102FE2A51D2B1F1004F40EBC4
:102D8000C25008BF20F0010040EA0300704749002C
:102D900040EB000010F4000FA2F10102EDD1B0FAF7
:102DA00080FCACF1080CB2EB0C0200FA0CF0AABFEC
:102DB00000EBC25052421843BCBFD040184370478A
:102DC00092F0000F81F4000106BF80F40000013290
:102DD000013BB5E74FEA41037FEA226C18BF7FEA67
:102DE000236C21D092EA030F04D092F0000F08BFA9
:102DF0000846704790EA010F1CBF0020704712F090
:102E00007F4F04D1400028BF40F00040704712F1CE
:102E100000723CBF00F50000704700F0004343F033
:102E2000FE4040F4000070477FEA226216BF084669
:102E30007FEA23630146420206BF5FEA412390EA2C
:102E4000010F40F4800070474FF0000304E000BF22
:102E500010F0004348BF40425FEA000C08BF7047D3
:102E600043F0964301464FF000001CE050EA010297
:102E700008BF70474FF000030AE000BF50EA0102AC
:102E800008BF704711F0004302D5404261EB410199
:102E90005FEA010C02BF84460146002043F0B643BE
:102EA00008BFA3F18053A3F50003BCFA8CF2083AE3
:102EB000A3EBC25310DB01FA02FC634400FA02FCEC
:102EC000C2F12002BCF1004F20FA02F243EB0200F3
:102ED00008BF20F00100704702F1200201FA02FC55
:102EE000C2F1200250EA4C0021FA02F243EB020048
:102EF00008BF20EADC7070474FF0FF0C1CEAD0528C
:102F00001EBF1CEAD15392EA0C0F93EA0C0F6FD04C
:102F10001A4480EA010C400218BF5FEA41211ED02A
:102F20004FF0006343EA501043EA5111A0FB013116
:102F30000CF00040B1F5000F3EBF490041EAD371EB
:102F40005B0040EA010062F17F02FD2A1DD8B3F167
:102F5000004F40EBC25008BF20F00100704790F0D6
:102F6000000F0CF0004C08BF49024CEA502040EA28
:102F700051207F3AC2BFD2F1FF0340EAC2507047EE
:102F800040F400004FF00003013A5DDC12F1190F2C
:102F9000DCBF00F000407047C2F10002410021FA9E
:102FA00002F1C2F1200200FA02FC5FEA310040F1B6
:102FB000000053EA4C0308BF20EADC70704792F02F
:102FC000000F00F0004C02BF400010F4000F013A67
:102FD000F9D040EA0C0093F0000F01F0004C02BF62
:102FE000490011F4000F013BF9D041EA0C018FE7D1
:102FF0000CEAD15392EA0C0F18BF93EA0C0F0AD0D7
:1030000030F0004C18BF31F0004CD8D180EA0100FC
:1030100000F00040704790F0000F17BF90F0004F95
:10302000084691F0000F91F0004F14D092EA0C0F77
:1030300001D142020FD193EA0C0F03D14B0218BF0A
:10304000084608D180EA010000F0004040F0FE4050
:1030500040F40000704740F0FE4040F440007047EC
:103060004FF0FF0C1CEAD0521EBF1CEAD15392EA6B
:103070000C0F93EA0C0F69D0A2EB030280EA010C5B
:1030800049024FEA402037D04FF0805343EA1111F4
:1030900043EA10130CF000408B4238BF5B0042F152
:1030A0007D024FF4000C8B4224BF5B1A40EA0C00F7
:1030B000B3EB510F24BFA3EB510340EA5C00B3EB29
:1030C000910F24BFA3EB910340EA9C00B3EBD10F17
:1030D00024BFA3EBD10340EADC001B0118BF5FEA69
:1030E0001C1CE0D1FD2A3FF650AF8B4240EBC25092
:1030F00008BF20F0010070470CF0004C4CEA502053
:103100007F32C2BFD2F1FF0340EAC250704740F4A1
:1031100000004FF00003013A37E792F0000F00F093
:10312000004C02BF400010F4000F013AF9D040EA11
:103130000C0093F0000F01F0004C02BF490011F4A5
:10314000000F013BF9D041EA0C0195E70CEAD1539D
:1031500092EA0C0F08D142027FF47DAF93EA0C0F84
:103160007FF470AF084676E793EA0C0F04D14B0268
:103170003FF44CAF08466EE730F0004C18BF31F01A
:10318000004CCAD130F000427FF45CAF31F0004314
:103190007FF43CAF5FE700BF4FF0FF3C06E000BFAD
:1031A0004FF0010C02E000BF4FF0010C4DF804CDD0
:1031B0004FEA40024FEA41037FEA226C18BF7FEAE0
:1031C000236C11D001B052EA530C18BF90EA010FE2
:1031D00058BFB2EB030088BFC81738BF6FEAE17071
:1031E00018BF40F0010070477FEA226C02D15FEA0D
:1031F000402C05D17FEA236CE4D15FEA412CE1D079
:103200005DF8040B704700BF844608466146FFE73F
:103210000FB5FFF7C9FF002848BF10F1000F0FBD21
:103220004DF808EDFFF7F4FF0CBF012000205DF81A
:1032300008FB00BF4DF808EDFFF7EAFF34BF01209F
:1032400000205DF808FB00BF4DF808EDFFF7E0FF38
:1032500094BF012000205DF808FB00BF4DF808ED89
:10326000FFF7D2FF94BF012000205DF808FB00BFEC
:103270004DF808EDFFF7C8FF34BF012000205DF8CE
:1032800008FB00BF00210A2200F0BCB800220A237C
:1032900000F006B840F22C03C2F200031868704731
:1032A0002DE9F04F40F22014C2F2000485B01F4611
:1032B0008C4626680B460390029213F8014B321994
:1032C0001D4692F801B01BF0080BF6D12D2C73D0DF
:1032D0002B2C08BF15F8014BD7F1010338BF002391
:1032E000102F14BF1A4643F0010232B1302C73D0B4
:1032F0001BB1302C00F083800A27B946BBF1000FC8
:1033000049460CBF6FF0004A4FF0004ACDF804C0A8
:10331000504600F0B3F950468846494600F080F820
:1033200033190022DDF804C05B78114613F0040F56
:103330001ED0303CA74225DD814294BF00230123EB
:1033400053EAD2722ED10A1A534243EB0203444588
:10335000D4BF002303F00103002B23D109FB01415B
:1033600015F8014B012233195B7813F0040FE0D1FB
:1033700013F0030306D0012B14BF57233723E41A9D
:10338000A742D9DCB2F1FF3F1BD00846BBF1000FCA
:1033900010D1029B1BB152B90299C1F800C005B00F
:1033A000BDE8F08F4FF0FF3215F8014BDBE705F178
:1033B000FF3CF1E74842ECE715F8014B4FF0010BF9
:1033C0008AE70399BBF1000F0CBF6FF000404FF08C
:1033D000004022230B60DCE72A78A2F1780041420A
:1033E00041EB0001582A14BF0A4641F00102002AAD
:1033F0003FF47EAF10276C78B94602357EE7082788
:10340000B9467BE730B440F22C04C2F200040D460A
:10341000134601462A46206830BC41E70000000000
:103420004A1E08BF7047C0F02481884240F21681CE
:10343000114200F01781B0FA80F3B1FA81F2A2EBE9
:103440000303C3F11F0304A202EB03134FF00002B6
:103450009F4600BFAFF30080B0EBC17F00BF42EBDF
:10346000020228BFA0EBC170B0EB817F00BF42EB2E
:10347000020228BFA0EB8170B0EB417F00BF42EB9E
:10348000020228BFA0EB4170B0EB017F00BF42EB0E
:10349000020228BFA0EB0170B0EBC16F00BF42EB8E
:1034A000020228BFA0EBC160B0EB816F00BF42EB0E
:1034B000020228BFA0EB8160B0EB416F00BF42EB7E
:1034C000020228BFA0EB4160B0EB016F00BF42EBEE
:1034D000020228BFA0EB0160B0EBC15F00BF42EB6E
:1034E000020228BFA0EBC150B0EB815F00BF42EBEE
:1034F000020228BFA0EB8150B0EB415F00BF42EB5E
:10350000020228BFA0EB4150B0EB015F00BF42EBCD
:10351000020228BFA0EB0150B0EBC14F00BF42EB4D
:10352000020228BFA0EBC140B0EB814F00BF42EBCD
:10353000020228BFA0EB8140B0EB414F00BF42EB3D
:10354000020228BFA0EB4140B0EB014F00BF42EBAD
:10355000020228BFA0EB0140B0EBC13F00BF42EB2D
:10356000020228BFA0EBC130B0EB813F00BF42EBAD
:10357000020228BFA0EB8130B0EB413F00BF42EB1D
:10358000020228BFA0EB4130B0EB013F00BF42EB8D
:10359000020228BFA0EB0130B0EBC12F00BF42EB0D
:1035A000020228BFA0EBC120B0EB812F00BF42EB8D
:1035B000020228BFA0EB8120B0EB412F00BF42EBFD
:1035C000020228BFA0EB4120B0EB012F00BF42EB6D
:1035D000020228BFA0EB0120B0EBC11F00BF42EBED
:1035E000020228BFA0EBC110B0EB811F00BF42EB6D
:1035F000020228BFA0EB8110B0EB411F00BF42EBDD
:10360000020228BFA0EB4110B0EB011F00BF42EB4C
:10361000020228BFA0EB0110B0EBC10F00BF42EBCC
:10362000020228BFA0EBC100B0EB810F00BF42EB4C
:10363000020228BFA0EB8100B0EB410F00BF42EBBC
:10364000020228BFA0EB4100B0EB010F00BF42EB2C
:10365000020228BFA0EB0100104670470CBF0120FA
:1036600000207047B1FA81F2C2F11F0220FA02F085
:10367000704708B14FF0FF3000F00EB80029F8D0C5
:103680002DE90340FFF7CCFEBDE8064002FB00F346
:10369000A1EB0301704700BF704700BF48454C4C89
:1036A0004F00416E676C6531203D200020416E6700
:1036B0006C6532203D2000204D41585F7370656578
:1036C00064203D2000206465672F73656300416EB0
:1036D000676C6520312046696E697368000D0A00C9
:1036E000416E676C6520322046696E697368004ED2
:1036F000657720616E676C65207374617274004138
:103700006E676C652065726F72723A200045525286
:103710004F525F414E474C455F315F544F4F5F48BA
:1037200049474820004552524F525F414E474C4551
:103730005F315F544F4F5F4C4F5720004552524FFF
:10374000525F414E474C455F325F544F4F5F48498F
:10375000474820004552524F525F414E474C455F0B
:10376000325F544F4F5F4C4F57200073756D6D2083
:103770003D20004D5055203D200000006173696ED2
:1037800066000000000000007371727466000000A3
:103790003863ED3EDA0F493F5E987B3FDA0FC93F51
:1037A0006937AC3168212233B40F14336821A23356
:1037B0004300000000202020202020202020282856
:1037C00028282820202020202020202020202020E1
:1037D0002020202020881010101010101010101021
:1037E0001010101010040404040404040404041051
:1037F00010101010101041414141414101010101DF
:1038000001010101010101010101010101010101A8
:1038100010101010101042424242424202020202B4
:103820000202020202020202020202020202020278
:103830001010101020000000000000000000000028
:103840000000000000000000000000000000000078
:103850000000000000000000000000000000000068
:103860000000000000000000000000000000000058
:103870000000000000000000000000000000000048
:103880000000000000000000000000000000000038
:103890000000000000000000000000000000000028
:1038A0000000000000000000000000000000000018
:0838B000000000000000000010
:1038B8000000803F07A3F73C6F12033B4333883C6B
:1038C8000000803F0000803F000000000000000072
:1038D800000000000000008001000000300000200F
:1038E80000000000000000000000000000000000D0
:1038F80000000000000000000000000000000000C0
:10390800B0370008000000000000000000000000C0
:10391800000000000000000000000000000000009F
:10392800000000000000000000000000000000008F
:10393800000000000000000000000000000000007F
:10394800000000000000000000000000000000006F
:10395800000000000000000000000000000000005F
:10396800000000000000000000000000000000004F
:10397800000000000000000000000000000000003F
:10398800000000000000000000000000000000002F
:10399800000000000000000000000000000000001F
:1039A800000000000000000000000000000000000F
:1039B80000000000000000000000000000000000FF
:1039C80000000000000000000000000000000000EF
:0439D800B4370008F8
:0400000508000000EF
:00000001FF
